{
  "_format": "hh-sol-artifact-1",
  "contractName": "Marketplace",
  "sourceName": "contracts/Marketplace.sol",
  "abi": [
    {
      "inputs": [
        {
          "internalType": "string",
          "name": "_name",
          "type": "string"
        },
        {
          "internalType": "uint256",
          "name": "_fee",
          "type": "uint256"
        }
      ],
      "stateMutability": "nonpayable",
      "type": "constructor"
    },
    {
      "anonymous": false,
      "inputs": [
        {
          "indexed": false,
          "internalType": "uint256",
          "name": "id",
          "type": "uint256"
        },
        {
          "indexed": false,
          "internalType": "uint256",
          "name": "collectionId",
          "type": "uint256"
        },
        {
          "indexed": false,
          "internalType": "uint256",
          "name": "tokenId",
          "type": "uint256"
        },
        {
          "indexed": false,
          "internalType": "uint256",
          "name": "price",
          "type": "uint256"
        },
        {
          "indexed": false,
          "internalType": "uint256",
          "name": "percent",
          "type": "uint256"
        },
        {
          "indexed": true,
          "internalType": "address",
          "name": "creator",
          "type": "address"
        },
        {
          "indexed": true,
          "internalType": "address",
          "name": "buyer",
          "type": "address"
        },
        {
          "indexed": true,
          "internalType": "address",
          "name": "owner",
          "type": "address"
        },
        {
          "indexed": false,
          "internalType": "bool",
          "name": "fulfilled",
          "type": "bool"
        },
        {
          "indexed": false,
          "internalType": "bool",
          "name": "cancelled",
          "type": "bool"
        }
      ],
      "name": "BuyCollectible",
      "type": "event"
    },
    {
      "anonymous": false,
      "inputs": [
        {
          "indexed": false,
          "internalType": "uint256",
          "name": "collectionId",
          "type": "uint256"
        },
        {
          "indexed": false,
          "internalType": "uint256",
          "name": "id",
          "type": "uint256"
        },
        {
          "indexed": false,
          "internalType": "address",
          "name": "owner",
          "type": "address"
        }
      ],
      "name": "CancelCollectible",
      "type": "event"
    },
    {
      "anonymous": false,
      "inputs": [
        {
          "indexed": false,
          "internalType": "address",
          "name": "user",
          "type": "address"
        },
        {
          "indexed": false,
          "internalType": "uint256",
          "name": "amount",
          "type": "uint256"
        }
      ],
      "name": "ClaimFunds",
      "type": "event"
    },
    {
      "anonymous": false,
      "inputs": [
        {
          "indexed": false,
          "internalType": "uint256",
          "name": "id",
          "type": "uint256"
        },
        {
          "indexed": false,
          "internalType": "uint256",
          "name": "collectionId",
          "type": "uint256"
        },
        {
          "indexed": false,
          "internalType": "uint256",
          "name": "tokenId",
          "type": "uint256"
        },
        {
          "indexed": false,
          "internalType": "uint256",
          "name": "price",
          "type": "uint256"
        },
        {
          "indexed": true,
          "internalType": "address",
          "name": "owner",
          "type": "address"
        },
        {
          "indexed": true,
          "internalType": "address",
          "name": "creator",
          "type": "address"
        },
        {
          "indexed": false,
          "internalType": "bool",
          "name": "fulfilled",
          "type": "bool"
        },
        {
          "indexed": false,
          "internalType": "bool",
          "name": "cancelled",
          "type": "bool"
        }
      ],
      "name": "CreateCollectible",
      "type": "event"
    },
    {
      "anonymous": false,
      "inputs": [
        {
          "indexed": false,
          "internalType": "uint256",
          "name": "id",
          "type": "uint256"
        },
        {
          "indexed": false,
          "internalType": "string",
          "name": "name",
          "type": "string"
        },
        {
          "indexed": false,
          "internalType": "string",
          "name": "symbol",
          "type": "string"
        },
        {
          "indexed": false,
          "internalType": "string",
          "name": "description",
          "type": "string"
        },
        {
          "indexed": false,
          "internalType": "uint256",
          "name": "fee",
          "type": "uint256"
        },
        {
          "indexed": true,
          "internalType": "address",
          "name": "collection",
          "type": "address"
        },
        {
          "indexed": true,
          "internalType": "address",
          "name": "creator",
          "type": "address"
        }
      ],
      "name": "CreateCollection",
      "type": "event"
    },
    {
      "anonymous": false,
      "inputs": [
        {
          "indexed": false,
          "internalType": "uint256",
          "name": "collectionId",
          "type": "uint256"
        },
        {
          "indexed": false,
          "internalType": "uint256",
          "name": "id",
          "type": "uint256"
        },
        {
          "indexed": false,
          "internalType": "address",
          "name": "owner",
          "type": "address"
        }
      ],
      "name": "RevertCancelCollectible",
      "type": "event"
    },
    {
      "anonymous": false,
      "inputs": [
        {
          "indexed": false,
          "internalType": "uint256",
          "name": "id",
          "type": "uint256"
        },
        {
          "indexed": false,
          "internalType": "uint256",
          "name": "collectionId",
          "type": "uint256"
        },
        {
          "indexed": false,
          "internalType": "uint256",
          "name": "tokenId",
          "type": "uint256"
        },
        {
          "indexed": false,
          "internalType": "uint256",
          "name": "price",
          "type": "uint256"
        },
        {
          "indexed": false,
          "internalType": "uint256",
          "name": "percent",
          "type": "uint256"
        },
        {
          "indexed": true,
          "internalType": "address",
          "name": "creator",
          "type": "address"
        },
        {
          "indexed": true,
          "internalType": "address",
          "name": "buyer",
          "type": "address"
        },
        {
          "indexed": true,
          "internalType": "address",
          "name": "owner",
          "type": "address"
        },
        {
          "indexed": false,
          "internalType": "bool",
          "name": "fulfilled",
          "type": "bool"
        },
        {
          "indexed": false,
          "internalType": "bool",
          "name": "cancelled",
          "type": "bool"
        }
      ],
      "name": "SellCollectible",
      "type": "event"
    },
    {
      "stateMutability": "nonpayable",
      "type": "fallback"
    },
    {
      "inputs": [
        {
          "internalType": "uint256",
          "name": "_collectionId",
          "type": "uint256"
        },
        {
          "internalType": "uint256",
          "name": "_id",
          "type": "uint256"
        }
      ],
      "name": "buyCollectible",
      "outputs": [],
      "stateMutability": "payable",
      "type": "function"
    },
    {
      "inputs": [
        {
          "internalType": "uint256",
          "name": "_collectionId",
          "type": "uint256"
        },
        {
          "internalType": "uint256",
          "name": "_id",
          "type": "uint256"
        }
      ],
      "name": "cancelCollectible",
      "outputs": [],
      "stateMutability": "payable",
      "type": "function"
    },
    {
      "inputs": [],
      "name": "claimFunds",
      "outputs": [],
      "stateMutability": "payable",
      "type": "function"
    },
    {
      "inputs": [
        {
          "internalType": "uint256",
          "name": "_tokenId",
          "type": "uint256"
        },
        {
          "internalType": "uint256",
          "name": "_collectionId",
          "type": "uint256"
        },
        {
          "internalType": "uint256",
          "name": "_price",
          "type": "uint256"
        }
      ],
      "name": "createCollectible",
      "outputs": [],
      "stateMutability": "nonpayable",
      "type": "function"
    },
    {
      "inputs": [
        {
          "internalType": "string",
          "name": "_name",
          "type": "string"
        },
        {
          "internalType": "string",
          "name": "_symbol",
          "type": "string"
        },
        {
          "internalType": "string",
          "name": "_description",
          "type": "string"
        },
        {
          "internalType": "uint256",
          "name": "_fee",
          "type": "uint256"
        },
        {
          "internalType": "address",
          "name": "_nftCollection",
          "type": "address"
        }
      ],
      "name": "createCollection",
      "outputs": [],
      "stateMutability": "nonpayable",
      "type": "function"
    },
    {
      "inputs": [
        {
          "internalType": "uint256",
          "name": "_collectionId",
          "type": "uint256"
        },
        {
          "internalType": "uint256",
          "name": "_id",
          "type": "uint256"
        }
      ],
      "name": "getCollectible",
      "outputs": [
        {
          "components": [
            {
              "internalType": "uint256",
              "name": "id",
              "type": "uint256"
            },
            {
              "internalType": "uint256",
              "name": "collectionId",
              "type": "uint256"
            },
            {
              "internalType": "uint256",
              "name": "tokenId",
              "type": "uint256"
            },
            {
              "internalType": "uint256",
              "name": "price",
              "type": "uint256"
            },
            {
              "internalType": "address payable",
              "name": "owner",
              "type": "address"
            },
            {
              "internalType": "address payable",
              "name": "creator",
              "type": "address"
            },
            {
              "internalType": "bool",
              "name": "fulfilled",
              "type": "bool"
            },
            {
              "internalType": "bool",
              "name": "cancelled",
              "type": "bool"
            }
          ],
          "internalType": "struct Marketplace.Collectible",
          "name": "",
          "type": "tuple"
        }
      ],
      "stateMutability": "view",
      "type": "function"
    },
    {
      "inputs": [
        {
          "internalType": "uint256",
          "name": "_collectionId",
          "type": "uint256"
        }
      ],
      "name": "getCollectibleCount",
      "outputs": [
        {
          "internalType": "uint256",
          "name": "",
          "type": "uint256"
        }
      ],
      "stateMutability": "view",
      "type": "function"
    },
    {
      "inputs": [
        {
          "internalType": "uint256",
          "name": "_id",
          "type": "uint256"
        }
      ],
      "name": "getCollection",
      "outputs": [
        {
          "components": [
            {
              "internalType": "uint256",
              "name": "id",
              "type": "uint256"
            },
            {
              "internalType": "string",
              "name": "name",
              "type": "string"
            },
            {
              "internalType": "string",
              "name": "symbol",
              "type": "string"
            },
            {
              "internalType": "string",
              "name": "description",
              "type": "string"
            },
            {
              "internalType": "contract NFTCollection",
              "name": "nftCollection",
              "type": "address"
            },
            {
              "internalType": "uint256",
              "name": "fee",
              "type": "uint256"
            },
            {
              "internalType": "address payable",
              "name": "owner",
              "type": "address"
            },
            {
              "internalType": "address payable",
              "name": "creator",
              "type": "address"
            },
            {
              "internalType": "bool",
              "name": "fulfilled",
              "type": "bool"
            },
            {
              "internalType": "bool",
              "name": "cancelled",
              "type": "bool"
            }
          ],
          "internalType": "struct Marketplace.Collection",
          "name": "",
          "type": "tuple"
        }
      ],
      "stateMutability": "view",
      "type": "function"
    },
    {
      "inputs": [
        {
          "internalType": "string",
          "name": "_name",
          "type": "string"
        }
      ],
      "name": "getCollectionByName",
      "outputs": [
        {
          "components": [
            {
              "internalType": "uint256",
              "name": "id",
              "type": "uint256"
            },
            {
              "internalType": "string",
              "name": "name",
              "type": "string"
            },
            {
              "internalType": "string",
              "name": "symbol",
              "type": "string"
            },
            {
              "internalType": "string",
              "name": "description",
              "type": "string"
            },
            {
              "internalType": "contract NFTCollection",
              "name": "nftCollection",
              "type": "address"
            },
            {
              "internalType": "uint256",
              "name": "fee",
              "type": "uint256"
            },
            {
              "internalType": "address payable",
              "name": "owner",
              "type": "address"
            },
            {
              "internalType": "address payable",
              "name": "creator",
              "type": "address"
            },
            {
              "internalType": "bool",
              "name": "fulfilled",
              "type": "bool"
            },
            {
              "internalType": "bool",
              "name": "cancelled",
              "type": "bool"
            }
          ],
          "internalType": "struct Marketplace.Collection",
          "name": "",
          "type": "tuple"
        }
      ],
      "stateMutability": "view",
      "type": "function"
    },
    {
      "inputs": [
        {
          "internalType": "string",
          "name": "_symbol",
          "type": "string"
        }
      ],
      "name": "getCollectionBySymbol",
      "outputs": [
        {
          "components": [
            {
              "internalType": "uint256",
              "name": "id",
              "type": "uint256"
            },
            {
              "internalType": "string",
              "name": "name",
              "type": "string"
            },
            {
              "internalType": "string",
              "name": "symbol",
              "type": "string"
            },
            {
              "internalType": "string",
              "name": "description",
              "type": "string"
            },
            {
              "internalType": "contract NFTCollection",
              "name": "nftCollection",
              "type": "address"
            },
            {
              "internalType": "uint256",
              "name": "fee",
              "type": "uint256"
            },
            {
              "internalType": "address payable",
              "name": "owner",
              "type": "address"
            },
            {
              "internalType": "address payable",
              "name": "creator",
              "type": "address"
            },
            {
              "internalType": "bool",
              "name": "fulfilled",
              "type": "bool"
            },
            {
              "internalType": "bool",
              "name": "cancelled",
              "type": "bool"
            }
          ],
          "internalType": "struct Marketplace.Collection",
          "name": "",
          "type": "tuple"
        }
      ],
      "stateMutability": "view",
      "type": "function"
    },
    {
      "inputs": [],
      "name": "getCollectionsCount",
      "outputs": [
        {
          "internalType": "uint256",
          "name": "",
          "type": "uint256"
        }
      ],
      "stateMutability": "view",
      "type": "function"
    },
    {
      "inputs": [],
      "name": "getFee",
      "outputs": [
        {
          "internalType": "uint256",
          "name": "",
          "type": "uint256"
        }
      ],
      "stateMutability": "view",
      "type": "function"
    },
    {
      "inputs": [],
      "name": "getName",
      "outputs": [
        {
          "internalType": "string",
          "name": "",
          "type": "string"
        }
      ],
      "stateMutability": "view",
      "type": "function"
    },
    {
      "inputs": [],
      "name": "getOwner",
      "outputs": [
        {
          "internalType": "address",
          "name": "",
          "type": "address"
        }
      ],
      "stateMutability": "view",
      "type": "function"
    },
    {
      "inputs": [
        {
          "internalType": "address",
          "name": "_owner",
          "type": "address"
        }
      ],
      "name": "getUserFunds",
      "outputs": [
        {
          "internalType": "uint256",
          "name": "",
          "type": "uint256"
        }
      ],
      "stateMutability": "view",
      "type": "function"
    },
    {
      "inputs": [
        {
          "internalType": "uint256",
          "name": "_collectionId",
          "type": "uint256"
        },
        {
          "internalType": "uint256",
          "name": "_id",
          "type": "uint256"
        }
      ],
      "name": "revertCancelCollectible",
      "outputs": [],
      "stateMutability": "payable",
      "type": "function"
    },
    {
      "inputs": [
        {
          "internalType": "uint256",
          "name": "_collectionId",
          "type": "uint256"
        },
        {
          "internalType": "uint256",
          "name": "_id",
          "type": "uint256"
        },
        {
          "internalType": "uint256",
          "name": "_price",
          "type": "uint256"
        }
      ],
      "name": "sellCollectible",
      "outputs": [],
      "stateMutability": "payable",
      "type": "function"
    },
    {
      "inputs": [
        {
          "internalType": "uint256",
          "name": "_fee",
          "type": "uint256"
        }
      ],
      "name": "setFee",
      "outputs": [],
      "stateMutability": "nonpayable",
      "type": "function"
    },
    {
      "inputs": [
        {
          "internalType": "string",
          "name": "_name",
          "type": "string"
        }
      ],
      "name": "setName",
      "outputs": [],
      "stateMutability": "nonpayable",
      "type": "function"
    }
  ],
  "bytecode": "0x60a06040523480156200001157600080fd5b50604051620052ee380380620052ee83398181016040528101906200003791906200026c565b6001600081905550816001908162000050919062000513565b503373ffffffffffffffffffffffffffffffffffffffff1660808173ffffffffffffffffffffffffffffffffffffffff1681525050806002819055505050620005fa565b6000604051905090565b600080fd5b600080fd5b600080fd5b600080fd5b6000601f19601f8301169050919050565b7f4e487b7100000000000000000000000000000000000000000000000000000000600052604160045260246000fd5b620000fd82620000b2565b810181811067ffffffffffffffff821117156200011f576200011e620000c3565b5b80604052505050565b60006200013462000094565b9050620001428282620000f2565b919050565b600067ffffffffffffffff821115620001655762000164620000c3565b5b6200017082620000b2565b9050602081019050919050565b60005b838110156200019d57808201518184015260208101905062000180565b83811115620001ad576000848401525b50505050565b6000620001ca620001c48462000147565b62000128565b905082815260208101848484011115620001e957620001e8620000ad565b5b620001f68482856200017d565b509392505050565b600082601f830112620002165762000215620000a8565b5b815162000228848260208601620001b3565b91505092915050565b6000819050919050565b620002468162000231565b81146200025257600080fd5b50565b60008151905062000266816200023b565b92915050565b600080604083850312156200028657620002856200009e565b5b600083015167ffffffffffffffff811115620002a757620002a6620000a3565b5b620002b585828601620001fe565b9250506020620002c88582860162000255565b9150509250929050565b600081519050919050565b7f4e487b7100000000000000000000000000000000000000000000000000000000600052602260045260246000fd5b600060028204905060018216806200032557607f821691505b6020821081036200033b576200033a620002dd565b5b50919050565b60008190508160005260206000209050919050565b60006020601f8301049050919050565b600082821b905092915050565b600060088302620003a57fffffffffffffffffffffffffffffffffffffffffffffffffffffffffffffffff8262000366565b620003b1868362000366565b95508019841693508086168417925050509392505050565b6000819050919050565b6000620003f4620003ee620003e88462000231565b620003c9565b62000231565b9050919050565b6000819050919050565b6200041083620003d3565b620004286200041f82620003fb565b84845462000373565b825550505050565b600090565b6200043f62000430565b6200044c81848462000405565b505050565b5b8181101562000474576200046860008262000435565b60018101905062000452565b5050565b601f821115620004c3576200048d8162000341565b620004988462000356565b81016020851015620004a8578190505b620004c0620004b78562000356565b83018262000451565b50505b505050565b600082821c905092915050565b6000620004e860001984600802620004c8565b1980831691505092915050565b6000620005038383620004d5565b9150826002028217905092915050565b6200051e82620002d2565b67ffffffffffffffff8111156200053a5762000539620000c3565b5b6200054682546200030c565b6200055382828562000478565b600060209050601f8311600181146200058b576000841562000576578287015190505b620005828582620004f5565b865550620005f2565b601f1984166200059b8662000341565b60005b82811015620005c5578489015182556001820191506020850194506020810190506200059e565b86831015620005e55784890151620005e1601f891682620004d5565b8355505b6001600288020188555050505b505050505050565b608051614cc36200062b60003960008181610b96015281816122940152818161234101526130b00152614cc36000f3fe6080604052600436106101185760003560e01c80635a1f3c28116100a05780639d25841b116100645780639d25841b146103ab578063ac307773146103e8578063bc333500146103f2578063c47f00271461040e578063ced72f871461043757610119565b80635a1f3c28146102b457806369fe0e2d146102f15780638740cd4e1461031a578063893d20e8146103575780638ffcf0601461038257610119565b80632a9cec66116100e75780632a9cec66146101ca5780634be69a1a146101f55780634e82994c14610232578063575aa2861461025b578063591907821461029857610119565b806317d7de7c1461012a578063227cb81f146101555780632767dd7d1461019257806327e6cdac146101ae57610119565b5b34801561012557600080fd5b600080fd5b34801561013657600080fd5b5061013f610462565b60405161014c9190613389565b60405180910390f35b34801561016157600080fd5b5061017c600480360381019061017791906134f4565b6104f4565b6040516101899190613743565b60405180910390f35b6101ac60048036038101906101a79190613791565b610856565b005b6101c860048036038101906101c39190613791565b610e5d565b005b3480156101d657600080fd5b506101df611222565b6040516101ec91906137e0565b60405180910390f35b34801561020157600080fd5b5061021c600480360381019061021791906137fb565b61122c565b60405161022991906137e0565b60405180910390f35b34801561023e57600080fd5b5061025960048036038101906102549190613866565b611299565b005b34801561026757600080fd5b50610282600480360381019061027d91906134f4565b6117dd565b60405161028f9190613743565b60405180910390f35b6102b260048036038101906102ad9190613791565b611b3f565b005b3480156102c057600080fd5b506102db60048036038101906102d691906137fb565b611f04565b6040516102e89190613743565b60405180910390f35b3480156102fd57600080fd5b50610318600480360381019061031391906137fb565b612285565b005b34801561032657600080fd5b50610341600480360381019061033c9190613935565b6122f4565b60405161034e91906137e0565b60405180910390f35b34801561036357600080fd5b5061036c61233d565b6040516103799190613971565b60405180910390f35b34801561038e57600080fd5b506103a960048036038101906103a4919061398c565b612365565b005b3480156103b757600080fd5b506103d260048036038101906103cd9190613791565b612766565b6040516103df9190613a81565b60405180910390f35b6103f0612963565b005b61040c6004803603810190610407919061398c565b612b3a565b005b34801561041a57600080fd5b50610435600480360381019061043091906134f4565b6130ae565b005b34801561044357600080fd5b5061044c613127565b60405161045991906137e0565b60405180910390f35b60606001805461047190613acc565b80601f016020809104026020016040519081016040528092919081815260200182805461049d90613acc565b80156104ea5780601f106104bf576101008083540402835291602001916104ea565b820191906000526020600020905b8154815290600101906020018083116104cd57829003601f168201915b5050505050905090565b6104fc6131e2565b600082510361050a57600080fd5b600060098360405161051c9190613b39565b908152602001604051809103902054905060086000828152602001908152602001600020604051806101400160405290816000820154815260200160018201805461056690613acc565b80601f016020809104026020016040519081016040528092919081815260200182805461059290613acc565b80156105df5780601f106105b4576101008083540402835291602001916105df565b820191906000526020600020905b8154815290600101906020018083116105c257829003601f168201915b505050505081526020016002820180546105f890613acc565b80601f016020809104026020016040519081016040528092919081815260200182805461062490613acc565b80156106715780601f1061064657610100808354040283529160200191610671565b820191906000526020600020905b81548152906001019060200180831161065457829003601f168201915b5050505050815260200160038201805461068a90613acc565b80601f01602080910402602001604051908101604052809291908181526020018280546106b690613acc565b80156107035780601f106106d857610100808354040283529160200191610703565b820191906000526020600020905b8154815290600101906020018083116106e657829003601f168201915b505050505081526020016004820160009054906101000a900473ffffffffffffffffffffffffffffffffffffffff1673ffffffffffffffffffffffffffffffffffffffff1673ffffffffffffffffffffffffffffffffffffffff168152602001600582015481526020016006820160009054906101000a900473ffffffffffffffffffffffffffffffffffffffff1673ffffffffffffffffffffffffffffffffffffffff1673ffffffffffffffffffffffffffffffffffffffff1681526020016007820160009054906101000a900473ffffffffffffffffffffffffffffffffffffffff1673ffffffffffffffffffffffffffffffffffffffff1673ffffffffffffffffffffffffffffffffffffffff1681526020016007820160149054906101000a900460ff161515151581526020016007820160159054906101000a900460ff161515151581525050915050919050565b61085e613131565b60008211801561087057506004548211155b6108af576040517f08c379a00000000000000000000000000000000000000000000000000000000081526004016108a690613b9c565b60405180910390fd5b6000811180156108d25750600b6000838152602001908152602001600020548111155b610911576040517f08c379a000000000000000000000000000000000000000000000000000000000815260040161090890613c08565b60405180910390fd5b6000600c600084815260200190815260200160002060008381526020019081526020016000209050600060086000858152602001908152602001600020905082826000015414610996576040517f08c379a000000000000000000000000000000000000000000000000000000000815260040161098d90613c74565b60405180910390fd5b838160000154146109dc576040517f08c379a00000000000000000000000000000000000000000000000000000000081526004016109d390613b9c565b60405180910390fd5b8160050160149054906101000a900460ff1615610a2e576040517f08c379a0000000000000000000000000000000000000000000000000000000008152600401610a2590613d06565b60405180910390fd5b8160050160159054906101000a900460ff1615610a80576040517f08c379a0000000000000000000000000000000000000000000000000000000008152600401610a7790613d98565b60405180910390fd5b6000610ac6610ab36064610aa58660030154866005015461318090919063ffffffff16565b61319690919063ffffffff16565b84600301546131ac90919063ffffffff16565b90506000610ae18460030154836131c290919063ffffffff16565b9050813414610b25576040517f08c379a0000000000000000000000000000000000000000000000000000000008152600401610b1c90613e2a565b60405180910390fd5b8360040160009054906101000a900473ffffffffffffffffffffffffffffffffffffffff1673ffffffffffffffffffffffffffffffffffffffff166108fc85600301549081150290604051600060405180830381858888f19350505050158015610b93573d6000803e3d6000fd5b507f000000000000000000000000000000000000000000000000000000000000000073ffffffffffffffffffffffffffffffffffffffff166108fc829081150290604051600060405180830381858888f19350505050158015610bfa573d6000803e3d6000fd5b508260040160009054906101000a900473ffffffffffffffffffffffffffffffffffffffff1673ffffffffffffffffffffffffffffffffffffffff166323b872dd303387600201546040518463ffffffff1660e01b8152600401610c6093929190613e4a565b600060405180830381600087803b158015610c7a57600080fd5b505af1158015610c8e573d6000803e3d6000fd5b50505050338460040160006101000a81548173ffffffffffffffffffffffffffffffffffffffff021916908373ffffffffffffffffffffffffffffffffffffffff16021790555060018460050160146101000a81548160ff02191690831515021790555034600360008660040160009054906101000a900473ffffffffffffffffffffffffffffffffffffffff1673ffffffffffffffffffffffffffffffffffffffff1673ffffffffffffffffffffffffffffffffffffffff1681526020019081526020016000206000828254610d659190613eb0565b925050819055508360040160009054906101000a900473ffffffffffffffffffffffffffffffffffffffff1673ffffffffffffffffffffffffffffffffffffffff163373ffffffffffffffffffffffffffffffffffffffff168560050160009054906101000a900473ffffffffffffffffffffffffffffffffffffffff1673ffffffffffffffffffffffffffffffffffffffff167f2113e24c104fd833724273fab6aaf3e844260e200a4e8c5d386afa2b3da4f4b68760000154886001015489600201548a6003015488600080604051610e459796959493929190613f15565b60405180910390a450505050610e596131d8565b5050565b610e65613131565b600082118015610e7757506004548211155b610eb6576040517f08c379a0000000000000000000000000000000000000000000000000000000008152600401610ead90613b9c565b60405180910390fd5b600081118015610ed95750600b6000838152602001908152602001600020548111155b610f18576040517f08c379a0000000000000000000000000000000000000000000000000000000008152600401610f0f90613c08565b60405180910390fd5b6000600c600084815260200190815260200160002060008381526020019081526020016000209050600060086000858152602001908152602001600020905082826000015414610f9d576040517f08c379a0000000000000000000000000000000000000000000000000000000008152600401610f9490613c74565b60405180910390fd5b83816000015414610fe3576040517f08c379a0000000000000000000000000000000000000000000000000000000008152600401610fda90613b9c565b60405180910390fd5b3373ffffffffffffffffffffffffffffffffffffffff168260040160009054906101000a900473ffffffffffffffffffffffffffffffffffffffff1673ffffffffffffffffffffffffffffffffffffffff1614611075576040517f08c379a000000000000000000000000000000000000000000000000000000000815260040161106c90613ff6565b60405180910390fd5b600015158260050160149054906101000a900460ff161515146110cd576040517f08c379a00000000000000000000000000000000000000000000000000000000081526004016110c490614088565b60405180910390fd5b600015158260050160159054906101000a900460ff16151514611125576040517f08c379a000000000000000000000000000000000000000000000000000000000815260040161111c9061411a565b60405180910390fd5b8060040160009054906101000a900473ffffffffffffffffffffffffffffffffffffffff1673ffffffffffffffffffffffffffffffffffffffff166323b872dd303385600001546040518463ffffffff1660e01b815260040161118a93929190613e4a565b600060405180830381600087803b1580156111a457600080fd5b505af11580156111b8573d6000803e3d6000fd5b5050505060018260050160156101000a81548160ff0219169083151502179055507fad0314170b45d3c8af828e0ad4ba6c2dba4f82438ae705bd5a5ed195d6a55a9f84843360405161120c9392919061413a565b60405180910390a1505061121e6131d8565b5050565b6000600454905090565b6000808211801561123f57506004548211155b61127e576040517f08c379a000000000000000000000000000000000000000000000000000000000815260040161127590613b9c565b60405180910390fd5b600b6000838152602001908152602001600020549050919050565b6112a1613131565b60008551036112af57600080fd5b60008451036112bd57600080fd5b6005856040516112cd9190613b39565b908152602001604051809103902060009054906101000a900460ff1615611329576040517f08c379a0000000000000000000000000000000000000000000000000000000008152600401611320906141bd565b60405180910390fd5b6006846040516113399190613b39565b908152602001604051809103902060009054906101000a900460ff1615611395576040517f08c379a000000000000000000000000000000000000000000000000000000000815260040161138c9061424f565b60405180910390fd5b600760008273ffffffffffffffffffffffffffffffffffffffff1673ffffffffffffffffffffffffffffffffffffffff16815260200190815260200160002060009054906101000a900460ff1615611422576040517f08c379a0000000000000000000000000000000000000000000000000000000008152600401611419906142e1565b60405180910390fd5b6004600081548092919061143590614301565b919050555060405180610140016040528060045481526020018681526020018581526020018481526020018273ffffffffffffffffffffffffffffffffffffffff1681526020018381526020013373ffffffffffffffffffffffffffffffffffffffff1681526020013373ffffffffffffffffffffffffffffffffffffffff168152602001600015158152602001600015158152506008600060045481526020019081526020016000206000820151816000015560208201518160010190816114fe91906144eb565b50604082015181600201908161151491906144eb565b50606082015181600301908161152a91906144eb565b5060808201518160040160006101000a81548173ffffffffffffffffffffffffffffffffffffffff021916908373ffffffffffffffffffffffffffffffffffffffff16021790555060a0820151816005015560c08201518160060160006101000a81548173ffffffffffffffffffffffffffffffffffffffff021916908373ffffffffffffffffffffffffffffffffffffffff16021790555060e08201518160070160006101000a81548173ffffffffffffffffffffffffffffffffffffffff021916908373ffffffffffffffffffffffffffffffffffffffff1602179055506101008201518160070160146101000a81548160ff0219169083151502179055506101208201518160070160156101000a81548160ff02191690831515021790555090505060016005866040516116619190613b39565b908152602001604051809103902060006101000a81548160ff02191690831515021790555060016006856040516116989190613b39565b908152602001604051809103902060006101000a81548160ff0219169083151502179055506001600760008373ffffffffffffffffffffffffffffffffffffffff1673ffffffffffffffffffffffffffffffffffffffff16815260200190815260200160002060006101000a81548160ff0219169083151502179055506004546009866040516117289190613b39565b908152602001604051809103902081905550600454600a8560405161174d9190613b39565b9081526020016040518091039020819055503373ffffffffffffffffffffffffffffffffffffffff168173ffffffffffffffffffffffffffffffffffffffff167f66889a78ec8fcdb4febf55b76897730731a05055e9bb94f80ec4cf001ba427b8600454888888886040516117c69594939291906145bd565b60405180910390a36117d66131d8565b5050505050565b6117e56131e2565b60008251036117f357600080fd5b6000600a836040516118059190613b39565b908152602001604051809103902054905060086000828152602001908152602001600020604051806101400160405290816000820154815260200160018201805461184f90613acc565b80601f016020809104026020016040519081016040528092919081815260200182805461187b90613acc565b80156118c85780601f1061189d576101008083540402835291602001916118c8565b820191906000526020600020905b8154815290600101906020018083116118ab57829003601f168201915b505050505081526020016002820180546118e190613acc565b80601f016020809104026020016040519081016040528092919081815260200182805461190d90613acc565b801561195a5780601f1061192f5761010080835404028352916020019161195a565b820191906000526020600020905b81548152906001019060200180831161193d57829003601f168201915b5050505050815260200160038201805461197390613acc565b80601f016020809104026020016040519081016040528092919081815260200182805461199f90613acc565b80156119ec5780601f106119c1576101008083540402835291602001916119ec565b820191906000526020600020905b8154815290600101906020018083116119cf57829003601f168201915b505050505081526020016004820160009054906101000a900473ffffffffffffffffffffffffffffffffffffffff1673ffffffffffffffffffffffffffffffffffffffff1673ffffffffffffffffffffffffffffffffffffffff168152602001600582015481526020016006820160009054906101000a900473ffffffffffffffffffffffffffffffffffffffff1673ffffffffffffffffffffffffffffffffffffffff1673ffffffffffffffffffffffffffffffffffffffff1681526020016007820160009054906101000a900473ffffffffffffffffffffffffffffffffffffffff1673ffffffffffffffffffffffffffffffffffffffff1673ffffffffffffffffffffffffffffffffffffffff1681526020016007820160149054906101000a900460ff161515151581526020016007820160159054906101000a900460ff161515151581525050915050919050565b611b47613131565b600082118015611b5957506004548211155b611b98576040517f08c379a0000000000000000000000000000000000000000000000000000000008152600401611b8f90613b9c565b60405180910390fd5b600081118015611bbb5750600b6000838152602001908152602001600020548111155b611bfa576040517f08c379a0000000000000000000000000000000000000000000000000000000008152600401611bf190613c08565b60405180910390fd5b6000600c600084815260200190815260200160002060008381526020019081526020016000209050600060086000858152602001908152602001600020905082826000015414611c7f576040517f08c379a0000000000000000000000000000000000000000000000000000000008152600401611c7690613c74565b60405180910390fd5b83816000015414611cc5576040517f08c379a0000000000000000000000000000000000000000000000000000000008152600401611cbc90613b9c565b60405180910390fd5b3373ffffffffffffffffffffffffffffffffffffffff168260040160009054906101000a900473ffffffffffffffffffffffffffffffffffffffff1673ffffffffffffffffffffffffffffffffffffffff1614611d57576040517f08c379a0000000000000000000000000000000000000000000000000000000008152600401611d4e90613ff6565b60405180910390fd5b600015158260050160149054906101000a900460ff16151514611daf576040517f08c379a0000000000000000000000000000000000000000000000000000000008152600401611da690614088565b60405180910390fd5b600115158260050160159054906101000a900460ff16151514611e07576040517f08c379a0000000000000000000000000000000000000000000000000000000008152600401611dfe90614697565b60405180910390fd5b8060040160009054906101000a900473ffffffffffffffffffffffffffffffffffffffff1673ffffffffffffffffffffffffffffffffffffffff166323b872dd333085600001546040518463ffffffff1660e01b8152600401611e6c93929190613e4a565b600060405180830381600087803b158015611e8657600080fd5b505af1158015611e9a573d6000803e3d6000fd5b5050505060008260050160156101000a81548160ff0219169083151502179055507f709bc3ea0734be363f97cceebeedeb127b8e2eeb5699bbc599d053320944d222848433604051611eee9392919061413a565b60405180910390a15050611f006131d8565b5050565b611f0c6131e2565b600082118015611f1e57506004548211155b611f5d576040517f08c379a0000000000000000000000000000000000000000000000000000000008152600401611f5490614703565b60405180910390fd5b600860008381526020019081526020016000206040518061014001604052908160008201548152602001600182018054611f9690613acc565b80601f0160208091040260200160405190810160405280929190818152602001828054611fc290613acc565b801561200f5780601f10611fe45761010080835404028352916020019161200f565b820191906000526020600020905b815481529060010190602001808311611ff257829003601f168201915b5050505050815260200160028201805461202890613acc565b80601f016020809104026020016040519081016040528092919081815260200182805461205490613acc565b80156120a15780601f10612076576101008083540402835291602001916120a1565b820191906000526020600020905b81548152906001019060200180831161208457829003601f168201915b505050505081526020016003820180546120ba90613acc565b80601f01602080910402602001604051908101604052809291908181526020018280546120e690613acc565b80156121335780601f1061210857610100808354040283529160200191612133565b820191906000526020600020905b81548152906001019060200180831161211657829003601f168201915b505050505081526020016004820160009054906101000a900473ffffffffffffffffffffffffffffffffffffffff1673ffffffffffffffffffffffffffffffffffffffff1673ffffffffffffffffffffffffffffffffffffffff168152602001600582015481526020016006820160009054906101000a900473ffffffffffffffffffffffffffffffffffffffff1673ffffffffffffffffffffffffffffffffffffffff1673ffffffffffffffffffffffffffffffffffffffff1681526020016007820160009054906101000a900473ffffffffffffffffffffffffffffffffffffffff1673ffffffffffffffffffffffffffffffffffffffff1673ffffffffffffffffffffffffffffffffffffffff1681526020016007820160149054906101000a900460ff161515151581526020016007820160159054906101000a900460ff1615151515815250509050919050565b6000811161229257600080fd5b7f000000000000000000000000000000000000000000000000000000000000000073ffffffffffffffffffffffffffffffffffffffff163373ffffffffffffffffffffffffffffffffffffffff16146122ea57600080fd5b8060028190555050565b6000600360008373ffffffffffffffffffffffffffffffffffffffff1673ffffffffffffffffffffffffffffffffffffffff168152602001908152602001600020549050919050565b60007f0000000000000000000000000000000000000000000000000000000000000000905090565b61236d613131565b600083116123b0576040517f08c379a00000000000000000000000000000000000000000000000000000000081526004016123a79061476f565b60405180910390fd5b600082116123f3576040517f08c379a00000000000000000000000000000000000000000000000000000000081526004016123ea906147db565b60405180910390fd5b60008111612436576040517f08c379a000000000000000000000000000000000000000000000000000000000815260040161242d90614847565b60405180910390fd5b6000600860008481526020019081526020016000209050600081600101805461245e90613acc565b90500361246a57600080fd5b8060040160009054906101000a900473ffffffffffffffffffffffffffffffffffffffff1673ffffffffffffffffffffffffffffffffffffffff166323b872dd3330876040518463ffffffff1660e01b81526004016124cb93929190613e4a565b600060405180830381600087803b1580156124e557600080fd5b505af11580156124f9573d6000803e3d6000fd5b50505050600b6000848152602001908152602001600020600081548092919061252190614301565b9190505550604051806101000160405280600b60008681526020019081526020016000205481526020018481526020018581526020018381526020013373ffffffffffffffffffffffffffffffffffffffff1681526020013373ffffffffffffffffffffffffffffffffffffffff16815260200160001515815260200160001515815250600c60008581526020019081526020016000206000600b60008781526020019081526020016000205481526020019081526020016000206000820151816000015560208201518160010155604082015181600201556060820151816003015560808201518160040160006101000a81548173ffffffffffffffffffffffffffffffffffffffff021916908373ffffffffffffffffffffffffffffffffffffffff16021790555060a08201518160050160006101000a81548173ffffffffffffffffffffffffffffffffffffffff021916908373ffffffffffffffffffffffffffffffffffffffff16021790555060c08201518160050160146101000a81548160ff02191690831515021790555060e08201518160050160156101000a81548160ff0219169083151502179055509050503373ffffffffffffffffffffffffffffffffffffffff163373ffffffffffffffffffffffffffffffffffffffff167fa8c06022c569b9b6ea72f03547887d28eb8b48563368d68f4c4cb811788d7733600b60008781526020019081526020016000205486888760008060405161275096959493929190614867565b60405180910390a3506127616131d8565b505050565b61276e61327b565b60008311801561278057506004548311155b6127bf576040517f08c379a00000000000000000000000000000000000000000000000000000000081526004016127b690613b9c565b60405180910390fd5b6000821180156127e25750600b6000848152602001908152602001600020548211155b612821576040517f08c379a000000000000000000000000000000000000000000000000000000000815260040161281890613c08565b60405180910390fd5b600c6000848152602001908152602001600020600083815260200190815260200160002060405180610100016040529081600082015481526020016001820154815260200160028201548152602001600382015481526020016004820160009054906101000a900473ffffffffffffffffffffffffffffffffffffffff1673ffffffffffffffffffffffffffffffffffffffff1673ffffffffffffffffffffffffffffffffffffffff1681526020016005820160009054906101000a900473ffffffffffffffffffffffffffffffffffffffff1673ffffffffffffffffffffffffffffffffffffffff1673ffffffffffffffffffffffffffffffffffffffff1681526020016005820160149054906101000a900460ff161515151581526020016005820160159054906101000a900460ff161515151581525050905092915050565b61296b613131565b6000600360003373ffffffffffffffffffffffffffffffffffffffff1673ffffffffffffffffffffffffffffffffffffffff16815260200190815260200160002054116129ed576040517f08c379a00000000000000000000000000000000000000000000000000000000081526004016129e49061493a565b60405180910390fd5b3373ffffffffffffffffffffffffffffffffffffffff166108fc600360003373ffffffffffffffffffffffffffffffffffffffff1673ffffffffffffffffffffffffffffffffffffffff168152602001908152602001600020549081150290604051600060405180830381858888f19350505050158015612a72573d6000803e3d6000fd5b507f4f0554190111f93f8c2ccef2cc41473f187d7f29ff5a5c308ca41f9dfe4e989a33600360003373ffffffffffffffffffffffffffffffffffffffff1673ffffffffffffffffffffffffffffffffffffffff16815260200190815260200160002054604051612ae392919061495a565b60405180910390a16000600360003373ffffffffffffffffffffffffffffffffffffffff1673ffffffffffffffffffffffffffffffffffffffff16815260200190815260200160002081905550612b386131d8565b565b612b42613131565b600083118015612b5457506004548311155b612b93576040517f08c379a0000000000000000000000000000000000000000000000000000000008152600401612b8a90613b9c565b60405180910390fd5b600082118015612bb65750600b6000848152602001908152602001600020548211155b612bf5576040517f08c379a0000000000000000000000000000000000000000000000000000000008152600401612bec906149cf565b60405180910390fd5b60008111612c38576040517f08c379a0000000000000000000000000000000000000000000000000000000008152600401612c2f90614847565b60405180910390fd5b6000600c600085815260200190815260200160002060008481526020019081526020016000209050600060086000868152602001908152602001600020905083826000015414612cbd576040517f08c379a0000000000000000000000000000000000000000000000000000000008152600401612cb490614a3b565b60405180910390fd5b84816000015414612d03576040517f08c379a0000000000000000000000000000000000000000000000000000000008152600401612cfa90613b9c565b60405180910390fd5b3373ffffffffffffffffffffffffffffffffffffffff168260040160009054906101000a900473ffffffffffffffffffffffffffffffffffffffff1673ffffffffffffffffffffffffffffffffffffffff1614612d95576040517f08c379a0000000000000000000000000000000000000000000000000000000008152600401612d8c90614aa7565b60405180910390fd5b8160050160149054906101000a900460ff16612de6576040517f08c379a0000000000000000000000000000000000000000000000000000000008152600401612ddd90614b13565b60405180910390fd5b8160050160159054906101000a900460ff1615612e38576040517f08c379a0000000000000000000000000000000000000000000000000000000008152600401612e2f90613d98565b60405180910390fd5b8060040160009054906101000a900473ffffffffffffffffffffffffffffffffffffffff1673ffffffffffffffffffffffffffffffffffffffff166323b872dd333085600201546040518463ffffffff1660e01b8152600401612e9d93929190613e4a565b600060405180830381600087803b158015612eb757600080fd5b505af1158015612ecb573d6000803e3d6000fd5b50505050338260040160006101000a81548173ffffffffffffffffffffffffffffffffffffffff021916908373ffffffffffffffffffffffffffffffffffffffff16021790555060008260050160146101000a81548160ff0219169083151502179055508282600301819055506000612f7e612f6b6064612f5d8660030154866005015461318090919063ffffffff16565b61319690919063ffffffff16565b84600301546131ac90919063ffffffff16565b90506000612f998460030154836131c290919063ffffffff16565b90508360040160009054906101000a900473ffffffffffffffffffffffffffffffffffffffff1673ffffffffffffffffffffffffffffffffffffffff163373ffffffffffffffffffffffffffffffffffffffff168560050160009054906101000a900473ffffffffffffffffffffffffffffffffffffffff1673ffffffffffffffffffffffffffffffffffffffff167f7fb735d8807a062699b44ba56ddfb804cd125eda4bb00fee0fc621a3c46a36098760000154886001015489600201548a60030154888c60050160149054906101000a900460ff168d60050160159054906101000a900460ff166040516130959796959493929190613f15565b60405180910390a4505050506130a96131d8565b505050565b7f000000000000000000000000000000000000000000000000000000000000000073ffffffffffffffffffffffffffffffffffffffff163373ffffffffffffffffffffffffffffffffffffffff161461310657600080fd5b600081510361311457600080fd5b806001908161312391906144eb565b5050565b6000600254905090565b600260005403613176576040517f08c379a000000000000000000000000000000000000000000000000000000000815260040161316d90614b7f565b60405180910390fd5b6002600081905550565b6000818361318e9190614b9f565b905092915050565b600081836131a49190614c28565b905092915050565b600081836131ba9190613eb0565b905092915050565b600081836131d09190614c59565b905092915050565b6001600081905550565b60405180610140016040528060008152602001606081526020016060815260200160608152602001600073ffffffffffffffffffffffffffffffffffffffff16815260200160008152602001600073ffffffffffffffffffffffffffffffffffffffff168152602001600073ffffffffffffffffffffffffffffffffffffffff1681526020016000151581526020016000151581525090565b60405180610100016040528060008152602001600081526020016000815260200160008152602001600073ffffffffffffffffffffffffffffffffffffffff168152602001600073ffffffffffffffffffffffffffffffffffffffff1681526020016000151581526020016000151581525090565b600081519050919050565b600082825260208201905092915050565b60005b8381101561332a57808201518184015260208101905061330f565b83811115613339576000848401525b50505050565b6000601f19601f8301169050919050565b600061335b826132f0565b61336581856132fb565b935061337581856020860161330c565b61337e8161333f565b840191505092915050565b600060208201905081810360008301526133a38184613350565b905092915050565b6000604051905090565b600080fd5b600080fd5b600080fd5b600080fd5b7f4e487b7100000000000000000000000000000000000000000000000000000000600052604160045260246000fd5b6134018261333f565b810181811067ffffffffffffffff821117156134205761341f6133c9565b5b80604052505050565b60006134336133ab565b905061343f82826133f8565b919050565b600067ffffffffffffffff82111561345f5761345e6133c9565b5b6134688261333f565b9050602081019050919050565b82818337600083830152505050565b600061349761349284613444565b613429565b9050828152602081018484840111156134b3576134b26133c4565b5b6134be848285613475565b509392505050565b600082601f8301126134db576134da6133bf565b5b81356134eb848260208601613484565b91505092915050565b60006020828403121561350a576135096133b5565b5b600082013567ffffffffffffffff811115613528576135276133ba565b5b613534848285016134c6565b91505092915050565b6000819050919050565b6135508161353d565b82525050565b600082825260208201905092915050565b6000613572826132f0565b61357c8185613556565b935061358c81856020860161330c565b6135958161333f565b840191505092915050565b600073ffffffffffffffffffffffffffffffffffffffff82169050919050565b6000819050919050565b60006135e56135e06135db846135a0565b6135c0565b6135a0565b9050919050565b60006135f7826135ca565b9050919050565b6000613609826135ec565b9050919050565b613619816135fe565b82525050565b600061362a826135a0565b9050919050565b61363a8161361f565b82525050565b60008115159050919050565b61365581613640565b82525050565b6000610140830160008301516136746000860182613547565b506020830151848203602086015261368c8282613567565b915050604083015184820360408601526136a68282613567565b915050606083015184820360608601526136c08282613567565b91505060808301516136d56080860182613610565b5060a08301516136e860a0860182613547565b5060c08301516136fb60c0860182613631565b5060e083015161370e60e0860182613631565b5061010083015161372361010086018261364c565b5061012083015161373861012086018261364c565b508091505092915050565b6000602082019050818103600083015261375d818461365b565b905092915050565b61376e8161353d565b811461377957600080fd5b50565b60008135905061378b81613765565b92915050565b600080604083850312156137a8576137a76133b5565b5b60006137b68582860161377c565b92505060206137c78582860161377c565b9150509250929050565b6137da8161353d565b82525050565b60006020820190506137f560008301846137d1565b92915050565b600060208284031215613811576138106133b5565b5b600061381f8482850161377c565b91505092915050565b6000613833826135a0565b9050919050565b61384381613828565b811461384e57600080fd5b50565b6000813590506138608161383a565b92915050565b600080600080600060a08688031215613882576138816133b5565b5b600086013567ffffffffffffffff8111156138a05761389f6133ba565b5b6138ac888289016134c6565b955050602086013567ffffffffffffffff8111156138cd576138cc6133ba565b5b6138d9888289016134c6565b945050604086013567ffffffffffffffff8111156138fa576138f96133ba565b5b613906888289016134c6565b93505060606139178882890161377c565b925050608061392888828901613851565b9150509295509295909350565b60006020828403121561394b5761394a6133b5565b5b600061395984828501613851565b91505092915050565b61396b81613828565b82525050565b60006020820190506139866000830184613962565b92915050565b6000806000606084860312156139a5576139a46133b5565b5b60006139b38682870161377c565b93505060206139c48682870161377c565b92505060406139d58682870161377c565b9150509250925092565b610100820160008201516139f66000850182613547565b506020820151613a096020850182613547565b506040820151613a1c6040850182613547565b506060820151613a2f6060850182613547565b506080820151613a426080850182613631565b5060a0820151613a5560a0850182613631565b5060c0820151613a6860c085018261364c565b5060e0820151613a7b60e085018261364c565b50505050565b600061010082019050613a9760008301846139df565b92915050565b7f4e487b7100000000000000000000000000000000000000000000000000000000600052602260045260246000fd5b60006002820490506001821680613ae457607f821691505b602082108103613af757613af6613a9d565b5b50919050565b600081905092915050565b6000613b13826132f0565b613b1d8185613afd565b9350613b2d81856020860161330c565b80840191505092915050565b6000613b458284613b08565b915081905092915050565b7f436f6c6c656374696f6e206d7573742065786973740000000000000000000000600082015250565b6000613b866015836132fb565b9150613b9182613b50565b602082019050919050565b60006020820190508181036000830152613bb581613b79565b9050919050565b7f746f6b656e206d75737420657869737400000000000000000000000000000000600082015250565b6000613bf26010836132fb565b9150613bfd82613bbc565b602082019050919050565b60006020820190508181036000830152613c2181613be5565b9050919050565b7f546865206f66666572206d757374206578697374000000000000000000000000600082015250565b6000613c5e6014836132fb565b9150613c6982613c28565b602082019050919050565b60006020820190508181036000830152613c8d81613c51565b9050919050565b7f416e206f666665722063616e6e6f742062652066756c66696c6c65642074776960008201527f6365000000000000000000000000000000000000000000000000000000000000602082015250565b6000613cf06022836132fb565b9150613cfb82613c94565b604082019050919050565b60006020820190508181036000830152613d1f81613ce3565b9050919050565b7f412063616e63656c6c6564206f666665722063616e6e6f742062652066756c6660008201527f696c6c6564000000000000000000000000000000000000000000000000000000602082015250565b6000613d826025836132fb565b9150613d8d82613d26565b604082019050919050565b60006020820190508181036000830152613db181613d75565b9050919050565b7f5468652045544820616d6f756e742073686f756c64206d61746368207769746860008201527f20746865204e4654205072696365000000000000000000000000000000000000602082015250565b6000613e14602e836132fb565b9150613e1f82613db8565b604082019050919050565b60006020820190508181036000830152613e4381613e07565b9050919050565b6000606082019050613e5f6000830186613962565b613e6c6020830185613962565b613e7960408301846137d1565b949350505050565b7f4e487b7100000000000000000000000000000000000000000000000000000000600052601160045260246000fd5b6000613ebb8261353d565b9150613ec68361353d565b9250827fffffffffffffffffffffffffffffffffffffffffffffffffffffffffffffffff03821115613efb57613efa613e81565b5b828201905092915050565b613f0f81613640565b82525050565b600060e082019050613f2a600083018a6137d1565b613f3760208301896137d1565b613f4460408301886137d1565b613f5160608301876137d1565b613f5e60808301866137d1565b613f6b60a0830185613f06565b613f7860c0830184613f06565b98975050505050505050565b7f546865206f666665722063616e206f6e6c792062652063616e63656c6564206260008201527f7920746865206f776e6572000000000000000000000000000000000000000000602082015250565b6000613fe0602b836132fb565b9150613feb82613f84565b604082019050919050565b6000602082019050818103600083015261400f81613fd3565b9050919050565b7f412066756c66696c6c6564206f666665722063616e6e6f742062652063616e6360008201527f656c6c6564000000000000000000000000000000000000000000000000000000602082015250565b60006140726025836132fb565b915061407d82614016565b604082019050919050565b600060208201905081810360008301526140a181614065565b9050919050565b7f416e206f666665722063616e6e6f742062652063616e63656c6c65642074776960008201527f6365000000000000000000000000000000000000000000000000000000000000602082015250565b60006141046022836132fb565b915061410f826140a8565b604082019050919050565b60006020820190508181036000830152614133816140f7565b9050919050565b600060608201905061414f60008301866137d1565b61415c60208301856137d1565b6141696040830184613962565b949350505050565b7f436f6c6c656374696f6e206d757374206861766520756e69717565206e616d65600082015250565b60006141a76020836132fb565b91506141b282614171565b602082019050919050565b600060208201905081810360008301526141d68161419a565b9050919050565b7f436f6c6c656374696f6e206d757374206861766520756e697175652073796d6260008201527f6f6c000000000000000000000000000000000000000000000000000000000000602082015250565b60006142396022836132fb565b9150614244826141dd565b604082019050919050565b600060208201905081810360008301526142688161422c565b9050919050565b7f436f6c6c656374696f6e206d757374206265206e6f74206465706c6f7965642060008201527f6265666f72650000000000000000000000000000000000000000000000000000602082015250565b60006142cb6026836132fb565b91506142d68261426f565b604082019050919050565b600060208201905081810360008301526142fa816142be565b9050919050565b600061430c8261353d565b91507fffffffffffffffffffffffffffffffffffffffffffffffffffffffffffffffff820361433e5761433d613e81565b5b600182019050919050565b60008190508160005260206000209050919050565b60006020601f8301049050919050565b600082821b905092915050565b6000600883026143ab7fffffffffffffffffffffffffffffffffffffffffffffffffffffffffffffffff8261436e565b6143b5868361436e565b95508019841693508086168417925050509392505050565b60006143e86143e36143de8461353d565b6135c0565b61353d565b9050919050565b6000819050919050565b614402836143cd565b61441661440e826143ef565b84845461437b565b825550505050565b600090565b61442b61441e565b6144368184846143f9565b505050565b5b8181101561445a5761444f600082614423565b60018101905061443c565b5050565b601f82111561449f5761447081614349565b6144798461435e565b81016020851015614488578190505b61449c6144948561435e565b83018261443b565b50505b505050565b600082821c905092915050565b60006144c2600019846008026144a4565b1980831691505092915050565b60006144db83836144b1565b9150826002028217905092915050565b6144f4826132f0565b67ffffffffffffffff81111561450d5761450c6133c9565b5b6145178254613acc565b61452282828561445e565b600060209050601f8311600181146145555760008415614543578287015190505b61454d85826144cf565b8655506145b5565b601f19841661456386614349565b60005b8281101561458b57848901518255600182019150602085019450602081019050614566565b868310156145a857848901516145a4601f8916826144b1565b8355505b6001600288020188555050505b505050505050565b600060a0820190506145d260008301886137d1565b81810360208301526145e48187613350565b905081810360408301526145f88186613350565b9050818103606083015261460c8185613350565b905061461b60808301846137d1565b9695505050505050565b7f416e206f666665722063616e6e6f74206265207265766572746564206966206e60008201527f6f742063616e63656c6c65640000000000000000000000000000000000000000602082015250565b6000614681602c836132fb565b915061468c82614625565b604082019050919050565b600060208201905081810360008301526146b081614674565b9050919050565b7f436f6c6c656374696f6e206973206e6f74206578697374000000000000000000600082015250565b60006146ed6017836132fb565b91506146f8826146b7565b602082019050919050565b6000602082019050818103600083015261471c816146e0565b9050919050565b7f4d757374206861766520746f6b656e0000000000000000000000000000000000600082015250565b6000614759600f836132fb565b915061476482614723565b602082019050919050565b600060208201905081810360008301526147888161474c565b9050919050565b7f4d757374206861766520636f6c6c656374696f6e000000000000000000000000600082015250565b60006147c56014836132fb565b91506147d08261478f565b602082019050919050565b600060208201905081810360008301526147f4816147b8565b9050919050565b7f5072696365206d7573742062652067726561746572207468616e203000000000600082015250565b6000614831601c836132fb565b915061483c826147fb565b602082019050919050565b6000602082019050818103600083015261486081614824565b9050919050565b600060c08201905061487c60008301896137d1565b61488960208301886137d1565b61489660408301876137d1565b6148a360608301866137d1565b6148b06080830185613f06565b6148bd60a0830184613f06565b979650505050505050565b7f54686973207573657220686173206e6f2066756e647320746f20626520636c6160008201527f696d656400000000000000000000000000000000000000000000000000000000602082015250565b60006149246024836132fb565b915061492f826148c8565b604082019050919050565b6000602082019050818103600083015261495381614917565b9050919050565b600060408201905061496f6000830185613962565b61497c60208301846137d1565b9392505050565b7f546f6b656e206d75737420657869737400000000000000000000000000000000600082015250565b60006149b96010836132fb565b91506149c482614983565b602082019050919050565b600060208201905081810360008301526149e8816149ac565b9050919050565b7f436f6c6c65637469626c65206d75737420657869737400000000000000000000600082015250565b6000614a256016836132fb565b9150614a30826149ef565b602082019050919050565b60006020820190508181036000830152614a5481614a18565b9050919050565b7f4f6e6c79206f776e65722063616e2073656c6c20636f6c6c65637469626c6500600082015250565b6000614a91601f836132fb565b9150614a9c82614a5b565b602082019050919050565b60006020820190508181036000830152614ac081614a84565b9050919050565b7f436f6c6c65637469626c65206d7573742062652066756c66696c6c6564000000600082015250565b6000614afd601d836132fb565b9150614b0882614ac7565b602082019050919050565b60006020820190508181036000830152614b2c81614af0565b9050919050565b7f5265656e7472616e637947756172643a207265656e7472616e742063616c6c00600082015250565b6000614b69601f836132fb565b9150614b7482614b33565b602082019050919050565b60006020820190508181036000830152614b9881614b5c565b9050919050565b6000614baa8261353d565b9150614bb58361353d565b9250817fffffffffffffffffffffffffffffffffffffffffffffffffffffffffffffffff0483118215151615614bee57614bed613e81565b5b828202905092915050565b7f4e487b7100000000000000000000000000000000000000000000000000000000600052601260045260246000fd5b6000614c338261353d565b9150614c3e8361353d565b925082614c4e57614c4d614bf9565b5b828204905092915050565b6000614c648261353d565b9150614c6f8361353d565b925082821015614c8257614c81613e81565b5b82820390509291505056fea26469706673582212209c1b390a9b0a9e8c97bfb8b704d6b5a587bdb3784114056512319b6004bfa09f64736f6c634300080f0033",
  "linkReferences": {},
  "deployedLinkReferences": {}
}